{
  "abi": [
    {
      "type": "function",
      "name": "addArtist",
      "inputs": [
        {
          "name": "artistAddress",
          "type": "address",
          "internalType": "address"
        },
        {
          "name": "registeredAt",
          "type": "uint32",
          "internalType": "uint32"
        },
        {
          "name": "mainName",
          "type": "string",
          "internalType": "string"
        },
        {
          "name": "mainType",
          "type": "uint8",
          "internalType": "enum Artists.ArtistType"
        },
        {
          "name": "extraTypes",
          "type": "uint8[]",
          "internalType": "enum Artists.ArtistType[]"
        },
        {
          "name": "genres",
          "type": "bytes[]",
          "internalType": "bytes[]"
        },
        {
          "name": "description",
          "type": "tuple",
          "internalType": "struct Artists.DescriptionPreimage",
          "components": [
            {
              "name": "has_preimage",
              "type": "bool",
              "internalType": "bool"
            },
            {
              "name": "preimage",
              "type": "bytes32",
              "internalType": "bytes32"
            }
          ]
        },
        {
          "name": "assets",
          "type": "bytes32[]",
          "internalType": "bytes32[]"
        }
      ],
      "outputs": [],
      "stateMutability": "nonpayable"
    },
    {
      "type": "function",
      "name": "readArtist",
      "inputs": [
        {
          "name": "artistAddress",
          "type": "address",
          "internalType": "address"
        }
      ],
      "outputs": [
        {
          "name": "",
          "type": "tuple",
          "internalType": "struct Artists.Artist",
          "components": [
            {
              "name": "is_artist",
              "type": "bool",
              "internalType": "bool"
            },
            {
              "name": "data",
              "type": "tuple",
              "internalType": "struct Artists.ArtistData",
              "components": [
                {
                  "name": "owner",
                  "type": "address",
                  "internalType": "address"
                },
                {
                  "name": "registered_at",
                  "type": "uint32",
                  "internalType": "uint32"
                },
                {
                  "name": "main_name",
                  "type": "string",
                  "internalType": "string"
                },
                {
                  "name": "main_type",
                  "type": "uint8",
                  "internalType": "enum Artists.ArtistType"
                },
                {
                  "name": "extra_types",
                  "type": "uint8[]",
                  "internalType": "enum Artists.ArtistType[]"
                },
                {
                  "name": "genres",
                  "type": "bytes[]",
                  "internalType": "bytes[]"
                },
                {
                  "name": "description",
                  "type": "tuple",
                  "internalType": "struct Artists.DescriptionPreimage",
                  "components": [
                    {
                      "name": "has_preimage",
                      "type": "bool",
                      "internalType": "bool"
                    },
                    {
                      "name": "preimage",
                      "type": "bytes32",
                      "internalType": "bytes32"
                    }
                  ]
                },
                {
                  "name": "assets",
                  "type": "bytes32[]",
                  "internalType": "bytes32[]"
                }
              ]
            }
          ]
        }
      ],
      "stateMutability": "view"
    },
    {
      "type": "event",
      "name": "ArtistAdded",
      "inputs": [
        {
          "name": "artistAddress",
          "type": "address",
          "indexed": false,
          "internalType": "address"
        },
        {
          "name": "registeredAt",
          "type": "uint32",
          "indexed": false,
          "internalType": "uint32"
        },
        {
          "name": "mainName",
          "type": "string",
          "indexed": false,
          "internalType": "string"
        },
        {
          "name": "mainType",
          "type": "uint8",
          "indexed": false,
          "internalType": "enum Artists.ArtistType"
        },
        {
          "name": "extraTypes",
          "type": "uint8[]",
          "indexed": false,
          "internalType": "enum Artists.ArtistType[]"
        },
        {
          "name": "genres",
          "type": "bytes[]",
          "indexed": false,
          "internalType": "bytes[]"
        },
        {
          "name": "description",
          "type": "tuple",
          "indexed": false,
          "internalType": "struct Artists.DescriptionPreimage",
          "components": [
            {
              "name": "has_preimage",
              "type": "bool",
              "internalType": "bool"
            },
            {
              "name": "preimage",
              "type": "bytes32",
              "internalType": "bytes32"
            }
          ]
        },
        {
          "name": "assets",
          "type": "bytes32[]",
          "indexed": false,
          "internalType": "bytes32[]"
        }
      ],
      "anonymous": false
    }
  ],
  "bytecode": {
    "object": "0x6080604052348015600f57600080fd5b50610d318061001f6000396000f3fe608060405234801561001057600080fd5b50600436106100365760003560e01c8063696f65671461003b578063caa5e39214610064575b600080fd5b61004e61004936600461022e565b610079565b60405161005b9190610396565b60405180910390f35b6100776100723660046107a6565b6100f5565b005b610081610197565b60405163389f936960e21b81526001600160a01b03831660048201526108039063e27e4da490602401600060405180830381865afa1580156100c7573d6000803e3d6000fd5b505050506040513d6000823e601f3d908101601f191682016040526100ef9190810190610aae565b92915050565b6001600160a01b0388166101485760405162461bcd60e51b8152602060048201526016602482015275496e76616c696420617274697374206164647265737360501b604482015260640160405180910390fd5b7f5b57da10f49f4578cb2ab4596adc240ba8e88bd601a675341fb08becd0eb9dc38888888888888888604051610185989796959493929190610c2d565b60405180910390a15050505050505050565b604051806040016040528060001515815260200161020160408051610100810182526000808252602080830182905260608385018190528084018390526080840181905260a084015283518085019094528184528301529060c08201908152602001606081525090565b905290565b6001600160a01b038116811461021b57600080fd5b50565b803561022981610206565b919050565b60006020828403121561024057600080fd5b813561024b81610206565b9392505050565b60005b8381101561026d578181015183820152602001610255565b50506000910152565b6000815180845261028e816020860160208601610252565b601f01601f19169290920160200192915050565b600a81106102c057634e487b7160e01b600052602160045260246000fd5b9052565b600081518084526020840193506020830160005b828110156102fe576102eb8683516102a2565b60209586019591909101906001016102d8565b5093949350505050565b600082825180855260208501945060208160051b8301016020850160005b8381101561035857601f19858403018852610342838351610276565b6020988901989093509190910190600101610326565b50909695505050505050565b600081518084526020840193506020830160005b828110156102fe578151865260209586019590910190600101610378565b60208152815115156020820152600060208301516040808401526103c66060840182516001600160a01b03169052565b602081015163ffffffff166080840152604081015161012060a08501526103f1610180850182610276565b9050606082015161040560c08601826102a2565b506080820151848203605f190160e086015261042182826102c4565b91505060a0820151605f19858303016101008601526104408282610308565b91505060c0820151610462610120860182805115158252602090810151910152565b5060e08201519150605f19848203016101608501526104818183610364565b95945050505050565b63ffffffff8116811461021b57600080fd5b80356102298161048a565b634e487b7160e01b600052604160045260246000fd5b604080519081016001600160401b03811182821017156104df576104df6104a7565b60405290565b60405161010081016001600160401b03811182821017156104df576104df6104a7565b604051601f8201601f191681016001600160401b0381118282101715610530576105306104a7565b604052919050565b60006001600160401b03821115610551576105516104a7565b50601f01601f191660200190565b600061057261056d84610538565b610508565b905082815283838301111561058657600080fd5b828260208301376000602084830101529392505050565b600082601f8301126105ae57600080fd5b61024b8383356020850161055f565b600a811061021b57600080fd5b8035610229816105bd565b60006001600160401b038211156105ee576105ee6104a7565b5060051b60200190565b600082601f83011261060957600080fd5b813561061761056d826105d5565b8082825260208201915060208360051b86010192508583111561063957600080fd5b602085015b8381101561065f578035610651816105bd565b83526020928301920161063e565b5095945050505050565b600082601f83011261067a57600080fd5b813561068861056d826105d5565b8082825260208201915060208360051b8601019250858311156106aa57600080fd5b602085015b8381101561065f5780356001600160401b038111156106cd57600080fd5b8601603f810188136106de57600080fd5b6106f08860208301356040840161055f565b845250602092830192016106af565b801515811461021b57600080fd5b60006040828403121561071f57600080fd5b6107276104bd565b90508135610734816106ff565b815260209182013591810191909152919050565b600082601f83011261075957600080fd5b813561076761056d826105d5565b8082825260208201915060208360051b86010192508583111561078957600080fd5b602085015b8381101561065f57803583526020928301920161078e565b600080600080600080600080610120898b0312156107c357600080fd5b6107cc8961021e565b97506107da60208a0161049c565b965060408901356001600160401b038111156107f557600080fd5b6108018b828c0161059d565b96505061081060608a016105ca565b945060808901356001600160401b0381111561082b57600080fd5b6108378b828c016105f8565b94505060a08901356001600160401b0381111561085357600080fd5b61085f8b828c01610669565b93505061086f8a60c08b0161070d565b91506101008901356001600160401b0381111561088b57600080fd5b6108978b828c01610748565b9150509295985092959890939650565b805161022981610206565b80516102298161048a565b60006108cb61056d84610538565b90508281528383830111156108df57600080fd5b61024b836020830184610252565b600082601f8301126108fe57600080fd5b61024b838351602085016108bd565b8051610229816105bd565b600082601f83011261092957600080fd5b815161093761056d826105d5565b8082825260208201915060208360051b86010192508583111561095957600080fd5b602085015b8381101561065f578051610971816105bd565b83526020928301920161095e565b600082601f83011261099057600080fd5b815161099e61056d826105d5565b8082825260208201915060208360051b8601019250858311156109c057600080fd5b602085015b8381101561065f5780516001600160401b038111156109e357600080fd5b8601603f810188136109f457600080fd5b610a06886020830151604084016108bd565b845250602092830192016109c5565b600060408284031215610a2757600080fd5b610a2f6104bd565b90508151610a3c816106ff565b815260209182015191810191909152919050565b600082601f830112610a6157600080fd5b8151610a6f61056d826105d5565b8082825260208201915060208360051b860101925085831115610a9157600080fd5b602085015b8381101561065f578051835260209283019201610a96565b600060208284031215610ac057600080fd5b81516001600160401b03811115610ad657600080fd5b820160408185031215610ae857600080fd5b610af06104bd565b8151610afb816106ff565b815260208201516001600160401b03811115610b1657600080fd5b91909101906101208286031215610b2c57600080fd5b610b346104e5565b610b3d836108a7565b8152610b4b602084016108b2565b602082015260408301516001600160401b03811115610b6957600080fd5b610b75878286016108ed565b604083015250610b876060840161090d565b606082015260808301516001600160401b03811115610ba557600080fd5b610bb187828601610918565b60808301525060a08301516001600160401b03811115610bd057600080fd5b610bdc8782860161097f565b60a083015250610bef8660c08501610a15565b60c08201526101008301516001600160401b03811115610c0e57600080fd5b610c1a87828601610a50565b60e0830152506020820152949350505050565b6001600160a01b038916815263ffffffff8816602082015261012060408201819052600090610c5e90830189610276565b610c6b60608401896102a2565b82810360808401528651808252602080890192019060005b81811015610ca957610c968385516102a2565b6020938401939290920191600101610c83565b505083810360a0850152610cbd8188610308565b8651151560c0860152602087015160e08601529150610cd99050565b828103610100840152610cec8185610364565b9b9a505050505050505050505056fea26469706673582212207fd910406401ad823661a49b0b11ed258cf73582b79e8f5d47307d3cab0e127564736f6c634300081a0033",
    "linkReferences": {}
  },
  "methodIdentifiers": {
    "addArtist(address,uint32,string,uint8,uint8[],bytes[],(bool,bytes32),bytes32[])": "caa5e392",
    "readArtist(address)": "696f6567"
  },
  "id": 0
}