{
  "_format": "hh-sol-artifact-1",
  "contractName": "BaseNFT",
  "sourceName": "contracts/BaseNFT.sol",
  "abi": [
    {
      "inputs": [
        {
          "internalType": "string",
          "name": "name",
          "type": "string"
        },
        {
          "internalType": "string",
          "name": "symbol",
          "type": "string"
        }
      ],
      "stateMutability": "nonpayable",
      "type": "constructor"
    },
    {
      "inputs": [
        {
          "internalType": "address",
          "name": "sender",
          "type": "address"
        },
        {
          "internalType": "uint256",
          "name": "tokenId",
          "type": "uint256"
        },
        {
          "internalType": "address",
          "name": "owner",
          "type": "address"
        }
      ],
      "name": "ERC721IncorrectOwner",
      "type": "error"
    },
    {
      "inputs": [
        {
          "internalType": "address",
          "name": "operator",
          "type": "address"
        },
        {
          "internalType": "uint256",
          "name": "tokenId",
          "type": "uint256"
        }
      ],
      "name": "ERC721InsufficientApproval",
      "type": "error"
    },
    {
      "inputs": [
        {
          "internalType": "address",
          "name": "approver",
          "type": "address"
        }
      ],
      "name": "ERC721InvalidApprover",
      "type": "error"
    },
    {
      "inputs": [
        {
          "internalType": "address",
          "name": "operator",
          "type": "address"
        }
      ],
      "name": "ERC721InvalidOperator",
      "type": "error"
    },
    {
      "inputs": [
        {
          "internalType": "address",
          "name": "owner",
          "type": "address"
        }
      ],
      "name": "ERC721InvalidOwner",
      "type": "error"
    },
    {
      "inputs": [
        {
          "internalType": "address",
          "name": "receiver",
          "type": "address"
        }
      ],
      "name": "ERC721InvalidReceiver",
      "type": "error"
    },
    {
      "inputs": [
        {
          "internalType": "address",
          "name": "sender",
          "type": "address"
        }
      ],
      "name": "ERC721InvalidSender",
      "type": "error"
    },
    {
      "inputs": [
        {
          "internalType": "uint256",
          "name": "tokenId",
          "type": "uint256"
        }
      ],
      "name": "ERC721NonexistentToken",
      "type": "error"
    },
    {
      "inputs": [
        {
          "internalType": "address",
          "name": "owner",
          "type": "address"
        }
      ],
      "name": "OwnableInvalidOwner",
      "type": "error"
    },
    {
      "inputs": [
        {
          "internalType": "address",
          "name": "account",
          "type": "address"
        }
      ],
      "name": "OwnableUnauthorizedAccount",
      "type": "error"
    },
    {
      "anonymous": false,
      "inputs": [
        {
          "indexed": true,
          "internalType": "address",
          "name": "owner",
          "type": "address"
        },
        {
          "indexed": true,
          "internalType": "address",
          "name": "approved",
          "type": "address"
        },
        {
          "indexed": true,
          "internalType": "uint256",
          "name": "tokenId",
          "type": "uint256"
        }
      ],
      "name": "Approval",
      "type": "event"
    },
    {
      "anonymous": false,
      "inputs": [
        {
          "indexed": true,
          "internalType": "address",
          "name": "owner",
          "type": "address"
        },
        {
          "indexed": true,
          "internalType": "address",
          "name": "operator",
          "type": "address"
        },
        {
          "indexed": false,
          "internalType": "bool",
          "name": "approved",
          "type": "bool"
        }
      ],
      "name": "ApprovalForAll",
      "type": "event"
    },
    {
      "anonymous": false,
      "inputs": [
        {
          "indexed": false,
          "internalType": "uint256",
          "name": "_fromTokenId",
          "type": "uint256"
        },
        {
          "indexed": false,
          "internalType": "uint256",
          "name": "_toTokenId",
          "type": "uint256"
        }
      ],
      "name": "BatchMetadataUpdate",
      "type": "event"
    },
    {
      "anonymous": false,
      "inputs": [
        {
          "indexed": false,
          "internalType": "uint256",
          "name": "_tokenId",
          "type": "uint256"
        }
      ],
      "name": "MetadataUpdate",
      "type": "event"
    },
    {
      "anonymous": false,
      "inputs": [
        {
          "indexed": true,
          "internalType": "address",
          "name": "previousOwner",
          "type": "address"
        },
        {
          "indexed": true,
          "internalType": "address",
          "name": "newOwner",
          "type": "address"
        }
      ],
      "name": "OwnershipTransferred",
      "type": "event"
    },
    {
      "anonymous": false,
      "inputs": [
        {
          "indexed": true,
          "internalType": "address",
          "name": "from",
          "type": "address"
        },
        {
          "indexed": true,
          "internalType": "address",
          "name": "to",
          "type": "address"
        },
        {
          "indexed": true,
          "internalType": "uint256",
          "name": "tokenId",
          "type": "uint256"
        }
      ],
      "name": "Transfer",
      "type": "event"
    },
    {
      "inputs": [
        {
          "internalType": "address",
          "name": "to",
          "type": "address"
        },
        {
          "internalType": "uint256",
          "name": "tokenId",
          "type": "uint256"
        }
      ],
      "name": "approve",
      "outputs": [],
      "stateMutability": "nonpayable",
      "type": "function"
    },
    {
      "inputs": [
        {
          "internalType": "address",
          "name": "owner",
          "type": "address"
        }
      ],
      "name": "balanceOf",
      "outputs": [
        {
          "internalType": "uint256",
          "name": "",
          "type": "uint256"
        }
      ],
      "stateMutability": "view",
      "type": "function"
    },
    {
      "inputs": [],
      "name": "baseURI",
      "outputs": [
        {
          "internalType": "string",
          "name": "",
          "type": "string"
        }
      ],
      "stateMutability": "view",
      "type": "function"
    },
    {
      "inputs": [
        {
          "internalType": "uint256",
          "name": "tokenId",
          "type": "uint256"
        }
      ],
      "name": "getApproved",
      "outputs": [
        {
          "internalType": "address",
          "name": "",
          "type": "address"
        }
      ],
      "stateMutability": "view",
      "type": "function"
    },
    {
      "inputs": [
        {
          "internalType": "address",
          "name": "owner",
          "type": "address"
        },
        {
          "internalType": "address",
          "name": "operator",
          "type": "address"
        }
      ],
      "name": "isApprovedForAll",
      "outputs": [
        {
          "internalType": "bool",
          "name": "",
          "type": "bool"
        }
      ],
      "stateMutability": "view",
      "type": "function"
    },
    {
      "inputs": [
        {
          "internalType": "address",
          "name": "recipient",
          "type": "address"
        },
        {
          "internalType": "string",
          "name": "tokenURI",
          "type": "string"
        }
      ],
      "name": "mintNFT",
      "outputs": [
        {
          "internalType": "uint256",
          "name": "",
          "type": "uint256"
        }
      ],
      "stateMutability": "nonpayable",
      "type": "function"
    },
    {
      "inputs": [],
      "name": "name",
      "outputs": [
        {
          "internalType": "string",
          "name": "",
          "type": "string"
        }
      ],
      "stateMutability": "view",
      "type": "function"
    },
    {
      "inputs": [],
      "name": "owner",
      "outputs": [
        {
          "internalType": "address",
          "name": "",
          "type": "address"
        }
      ],
      "stateMutability": "view",
      "type": "function"
    },
    {
      "inputs": [
        {
          "internalType": "uint256",
          "name": "tokenId",
          "type": "uint256"
        }
      ],
      "name": "ownerOf",
      "outputs": [
        {
          "internalType": "address",
          "name": "",
          "type": "address"
        }
      ],
      "stateMutability": "view",
      "type": "function"
    },
    {
      "inputs": [],
      "name": "renounceOwnership",
      "outputs": [],
      "stateMutability": "nonpayable",
      "type": "function"
    },
    {
      "inputs": [
        {
          "internalType": "address",
          "name": "from",
          "type": "address"
        },
        {
          "internalType": "address",
          "name": "to",
          "type": "address"
        },
        {
          "internalType": "uint256",
          "name": "tokenId",
          "type": "uint256"
        }
      ],
      "name": "safeTransferFrom",
      "outputs": [],
      "stateMutability": "nonpayable",
      "type": "function"
    },
    {
      "inputs": [
        {
          "internalType": "address",
          "name": "from",
          "type": "address"
        },
        {
          "internalType": "address",
          "name": "to",
          "type": "address"
        },
        {
          "internalType": "uint256",
          "name": "tokenId",
          "type": "uint256"
        },
        {
          "internalType": "bytes",
          "name": "data",
          "type": "bytes"
        }
      ],
      "name": "safeTransferFrom",
      "outputs": [],
      "stateMutability": "nonpayable",
      "type": "function"
    },
    {
      "inputs": [
        {
          "internalType": "address",
          "name": "operator",
          "type": "address"
        },
        {
          "internalType": "bool",
          "name": "approved",
          "type": "bool"
        }
      ],
      "name": "setApprovalForAll",
      "outputs": [],
      "stateMutability": "nonpayable",
      "type": "function"
    },
    {
      "inputs": [
        {
          "internalType": "string",
          "name": "_baseURI",
          "type": "string"
        }
      ],
      "name": "setBaseURI",
      "outputs": [],
      "stateMutability": "nonpayable",
      "type": "function"
    },
    {
      "inputs": [
        {
          "internalType": "bytes4",
          "name": "interfaceId",
          "type": "bytes4"
        }
      ],
      "name": "supportsInterface",
      "outputs": [
        {
          "internalType": "bool",
          "name": "",
          "type": "bool"
        }
      ],
      "stateMutability": "view",
      "type": "function"
    },
    {
      "inputs": [],
      "name": "symbol",
      "outputs": [
        {
          "internalType": "string",
          "name": "",
          "type": "string"
        }
      ],
      "stateMutability": "view",
      "type": "function"
    },
    {
      "inputs": [
        {
          "internalType": "uint256",
          "name": "tokenId",
          "type": "uint256"
        }
      ],
      "name": "tokenURI",
      "outputs": [
        {
          "internalType": "string",
          "name": "",
          "type": "string"
        }
      ],
      "stateMutability": "view",
      "type": "function"
    },
    {
      "inputs": [
        {
          "internalType": "address",
          "name": "from",
          "type": "address"
        },
        {
          "internalType": "address",
          "name": "to",
          "type": "address"
        },
        {
          "internalType": "uint256",
          "name": "tokenId",
          "type": "uint256"
        }
      ],
      "name": "transferFrom",
      "outputs": [],
      "stateMutability": "nonpayable",
      "type": "function"
    },
    {
      "inputs": [
        {
          "internalType": "address",
          "name": "newOwner",
          "type": "address"
        }
      ],
      "name": "transferOwnership",
      "outputs": [],
      "stateMutability": "nonpayable",
      "type": "function"
    }
  ],
  "bytecode": "0x60806040523480156200001157600080fd5b5060405162002f4a38038062002f4a833981810160405281019062000037919062000369565b33828281600090816200004b919062000639565b5080600190816200005d919062000639565b505050600073ffffffffffffffffffffffffffffffffffffffff168173ffffffffffffffffffffffffffffffffffffffff1603620000d55760006040517f1e4fbdf7000000000000000000000000000000000000000000000000000000008152600401620000cc919062000765565b60405180910390fd5b620000e6816200011060201b60201c565b50604051806020016040528060008152506009908162000107919062000639565b50505062000782565b6000600760009054906101000a900473ffffffffffffffffffffffffffffffffffffffff16905081600760006101000a81548173ffffffffffffffffffffffffffffffffffffffff021916908373ffffffffffffffffffffffffffffffffffffffff1602179055508173ffffffffffffffffffffffffffffffffffffffff168173ffffffffffffffffffffffffffffffffffffffff167f8be0079c531659141344cd1fd0a4f28419497f9722a3daafe3b4186f6b6457e060405160405180910390a35050565b6000604051905090565b600080fd5b600080fd5b600080fd5b600080fd5b6000601f19601f8301169050919050565b7f4e487b7100000000000000000000000000000000000000000000000000000000600052604160045260246000fd5b6200023f82620001f4565b810181811067ffffffffffffffff8211171562000261576200026062000205565b5b80604052505050565b600062000276620001d6565b905062000284828262000234565b919050565b600067ffffffffffffffff821115620002a757620002a662000205565b5b620002b282620001f4565b9050602081019050919050565b60005b83811015620002df578082015181840152602081019050620002c2565b60008484015250505050565b600062000302620002fc8462000289565b6200026a565b905082815260208101848484011115620003215762000320620001ef565b5b6200032e848285620002bf565b509392505050565b600082601f8301126200034e576200034d620001ea565b5b815162000360848260208601620002eb565b91505092915050565b60008060408385031215620003835762000382620001e0565b5b600083015167ffffffffffffffff811115620003a457620003a3620001e5565b5b620003b28582860162000336565b925050602083015167ffffffffffffffff811115620003d657620003d5620001e5565b5b620003e48582860162000336565b9150509250929050565b600081519050919050565b7f4e487b7100000000000000000000000000000000000000000000000000000000600052602260045260246000fd5b600060028204905060018216806200044157607f821691505b602082108103620004575762000456620003f9565b5b50919050565b60008190508160005260206000209050919050565b60006020601f8301049050919050565b600082821b905092915050565b600060088302620004c17fffffffffffffffffffffffffffffffffffffffffffffffffffffffffffffffff8262000482565b620004cd868362000482565b95508019841693508086168417925050509392505050565b6000819050919050565b6000819050919050565b60006200051a620005146200050e84620004e5565b620004ef565b620004e5565b9050919050565b6000819050919050565b6200053683620004f9565b6200054e620005458262000521565b8484546200048f565b825550505050565b600090565b6200056562000556565b620005728184846200052b565b505050565b5b818110156200059a576200058e6000826200055b565b60018101905062000578565b5050565b601f821115620005e957620005b3816200045d565b620005be8462000472565b81016020851015620005ce578190505b620005e6620005dd8562000472565b83018262000577565b50505b505050565b600082821c905092915050565b60006200060e60001984600802620005ee565b1980831691505092915050565b6000620006298383620005fb565b9150826002028217905092915050565b6200064482620003ee565b67ffffffffffffffff81111562000660576200065f62000205565b5b6200066c825462000428565b620006798282856200059e565b600060209050601f831160018114620006b157600084156200069c578287015190505b620006a885826200061b565b86555062000718565b601f198416620006c1866200045d565b60005b82811015620006eb57848901518255600182019150602085019450602081019050620006c4565b868310156200070b578489015162000707601f891682620005fb565b8355505b6001600288020188555050505b505050505050565b600073ffffffffffffffffffffffffffffffffffffffff82169050919050565b60006200074d8262000720565b9050919050565b6200075f8162000740565b82525050565b60006020820190506200077c600083018462000754565b92915050565b6127b880620007926000396000f3fe608060405234801561001057600080fd5b50600436106101215760003560e01c806370a08231116100ad578063b88d4fde11610071578063b88d4fde146102f4578063c87b56dd14610310578063e985e9c514610340578063eacabe1414610370578063f2fde38b146103a057610121565b806370a0823114610262578063715018a6146102925780638da5cb5b1461029c57806395d89b41146102ba578063a22cb465146102d857610121565b806323b872dd116100f457806323b872dd146101c057806342842e0e146101dc57806355f804b3146101f85780636352211e146102145780636c0360eb1461024457610121565b806301ffc9a71461012657806306fdde0314610156578063081812fc14610174578063095ea7b3146101a4575b600080fd5b610140600480360381019061013b9190611bc7565b6103bc565b60405161014d9190611c0f565b60405180910390f35b61015e61041d565b60405161016b9190611cba565b60405180910390f35b61018e60048036038101906101899190611d12565b6104af565b60405161019b9190611d80565b60405180910390f35b6101be60048036038101906101b99190611dc7565b6104cb565b005b6101da60048036038101906101d59190611e07565b6104e1565b005b6101f660048036038101906101f19190611e07565b6105e3565b005b610212600480360381019061020d9190611f8f565b610603565b005b61022e60048036038101906102299190611d12565b61061e565b60405161023b9190611d80565b60405180910390f35b61024c610630565b6040516102599190611cba565b60405180910390f35b61027c60048036038101906102779190611fd8565b6106be565b6040516102899190612014565b60405180910390f35b61029a610778565b005b6102a461078c565b6040516102b19190611d80565b60405180910390f35b6102c26107b6565b6040516102cf9190611cba565b60405180910390f35b6102f260048036038101906102ed919061205b565b610848565b005b61030e6004803603810190610309919061213c565b61085e565b005b61032a60048036038101906103259190611d12565b610883565b6040516103379190611cba565b60405180910390f35b61035a600480360381019061035591906121bf565b610996565b6040516103679190611c0f565b60405180910390f35b61038a600480360381019061038591906121ff565b610a2a565b6040516103979190612014565b60405180910390f35b6103ba60048036038101906103b59190611fd8565b610a64565b005b6000634906490660e01b7bffffffffffffffffffffffffffffffffffffffffffffffffffffffff1916827bffffffffffffffffffffffffffffffffffffffffffffffffffffffff19161480610416575061041582610aea565b5b9050919050565b60606000805461042c9061228a565b80601f01602080910402602001604051908101604052809291908181526020018280546104589061228a565b80156104a55780601f1061047a576101008083540402835291602001916104a5565b820191906000526020600020905b81548152906001019060200180831161048857829003601f168201915b5050505050905090565b60006104ba82610bcc565b506104c482610c54565b9050919050565b6104dd82826104d8610c91565b610c99565b5050565b600073ffffffffffffffffffffffffffffffffffffffff168273ffffffffffffffffffffffffffffffffffffffff16036105535760006040517f64a0ae9200000000000000000000000000000000000000000000000000000000815260040161054a9190611d80565b60405180910390fd5b60006105678383610562610c91565b610cab565b90508373ffffffffffffffffffffffffffffffffffffffff168173ffffffffffffffffffffffffffffffffffffffff16146105dd578382826040517f64283d7b0000000000000000000000000000000000000000000000000000000081526004016105d4939291906122bb565b60405180910390fd5b50505050565b6105fe8383836040518060200160405280600081525061085e565b505050565b61060b610ec5565b806009908161061a919061249e565b5050565b600061062982610bcc565b9050919050565b6009805461063d9061228a565b80601f01602080910402602001604051908101604052809291908181526020018280546106699061228a565b80156106b65780601f1061068b576101008083540402835291602001916106b6565b820191906000526020600020905b81548152906001019060200180831161069957829003601f168201915b505050505081565b60008073ffffffffffffffffffffffffffffffffffffffff168273ffffffffffffffffffffffffffffffffffffffff16036107315760006040517f89c62b640000000000000000000000000000000000000000000000000000000081526004016107289190611d80565b60405180910390fd5b600360008373ffffffffffffffffffffffffffffffffffffffff1673ffffffffffffffffffffffffffffffffffffffff168152602001908152602001600020549050919050565b610780610ec5565b61078a6000610f4c565b565b6000600760009054906101000a900473ffffffffffffffffffffffffffffffffffffffff16905090565b6060600180546107c59061228a565b80601f01602080910402602001604051908101604052809291908181526020018280546107f19061228a565b801561083e5780601f106108135761010080835404028352916020019161083e565b820191906000526020600020905b81548152906001019060200180831161082157829003601f168201915b5050505050905090565b61085a610853610c91565b8383611012565b5050565b6108698484846104e1565b61087d610874610c91565b85858585611181565b50505050565b606061088e82610bcc565b5060006006600084815260200190815260200160002080546108af9061228a565b80601f01602080910402602001604051908101604052809291908181526020018280546108db9061228a565b80156109285780601f106108fd57610100808354040283529160200191610928565b820191906000526020600020905b81548152906001019060200180831161090b57829003601f168201915b505050505090506000610939611332565b9050600081510361094e578192505050610991565b60008251111561098357808260405160200161096b9291906125ac565b60405160208183030381529060405292505050610991565b61098c84611349565b925050505b919050565b6000600560008473ffffffffffffffffffffffffffffffffffffffff1673ffffffffffffffffffffffffffffffffffffffff16815260200190815260200160002060008373ffffffffffffffffffffffffffffffffffffffff1673ffffffffffffffffffffffffffffffffffffffff16815260200190815260200160002060009054906101000a900460ff16905092915050565b60008060086000815480929190610a40906125ff565b919050559050610a5084826113b2565b610a5a81846113d0565b8091505092915050565b610a6c610ec5565b600073ffffffffffffffffffffffffffffffffffffffff168173ffffffffffffffffffffffffffffffffffffffff1603610ade5760006040517f1e4fbdf7000000000000000000000000000000000000000000000000000000008152600401610ad59190611d80565b60405180910390fd5b610ae781610f4c565b50565b60007f80ac58cd000000000000000000000000000000000000000000000000000000007bffffffffffffffffffffffffffffffffffffffffffffffffffffffff1916827bffffffffffffffffffffffffffffffffffffffffffffffffffffffff19161480610bb557507f5b5e139f000000000000000000000000000000000000000000000000000000007bffffffffffffffffffffffffffffffffffffffffffffffffffffffff1916827bffffffffffffffffffffffffffffffffffffffffffffffffffffffff1916145b80610bc55750610bc48261142c565b5b9050919050565b600080610bd883611496565b9050600073ffffffffffffffffffffffffffffffffffffffff168173ffffffffffffffffffffffffffffffffffffffff1603610c4b57826040517f7e273289000000000000000000000000000000000000000000000000000000008152600401610c429190612014565b60405180910390fd5b80915050919050565b60006004600083815260200190815260200160002060009054906101000a900473ffffffffffffffffffffffffffffffffffffffff169050919050565b600033905090565b610ca683838360016114d3565b505050565b600080610cb784611496565b9050600073ffffffffffffffffffffffffffffffffffffffff168373ffffffffffffffffffffffffffffffffffffffff1614610cf957610cf8818486611698565b5b600073ffffffffffffffffffffffffffffffffffffffff168173ffffffffffffffffffffffffffffffffffffffff1614610d8a57610d3b6000856000806114d3565b6001600360008373ffffffffffffffffffffffffffffffffffffffff1673ffffffffffffffffffffffffffffffffffffffff168152602001908152602001600020600082825403925050819055505b600073ffffffffffffffffffffffffffffffffffffffff168573ffffffffffffffffffffffffffffffffffffffff1614610e0d576001600360008773ffffffffffffffffffffffffffffffffffffffff1673ffffffffffffffffffffffffffffffffffffffff168152602001908152602001600020600082825401925050819055505b846002600086815260200190815260200160002060006101000a81548173ffffffffffffffffffffffffffffffffffffffff021916908373ffffffffffffffffffffffffffffffffffffffff160217905550838573ffffffffffffffffffffffffffffffffffffffff168273ffffffffffffffffffffffffffffffffffffffff167fddf252ad1be2c89b69c2b068fc378daa952ba7f163c4a11628f55a4df523b3ef60405160405180910390a4809150509392505050565b610ecd610c91565b73ffffffffffffffffffffffffffffffffffffffff16610eeb61078c565b73ffffffffffffffffffffffffffffffffffffffff1614610f4a57610f0e610c91565b6040517f118cdaa7000000000000000000000000000000000000000000000000000000008152600401610f419190611d80565b60405180910390fd5b565b6000600760009054906101000a900473ffffffffffffffffffffffffffffffffffffffff16905081600760006101000a81548173ffffffffffffffffffffffffffffffffffffffff021916908373ffffffffffffffffffffffffffffffffffffffff1602179055508173ffffffffffffffffffffffffffffffffffffffff168173ffffffffffffffffffffffffffffffffffffffff167f8be0079c531659141344cd1fd0a4f28419497f9722a3daafe3b4186f6b6457e060405160405180910390a35050565b600073ffffffffffffffffffffffffffffffffffffffff168273ffffffffffffffffffffffffffffffffffffffff160361108357816040517f5b08ba1800000000000000000000000000000000000000000000000000000000815260040161107a9190611d80565b60405180910390fd5b80600560008573ffffffffffffffffffffffffffffffffffffffff1673ffffffffffffffffffffffffffffffffffffffff16815260200190815260200160002060008473ffffffffffffffffffffffffffffffffffffffff1673ffffffffffffffffffffffffffffffffffffffff16815260200190815260200160002060006101000a81548160ff0219169083151502179055508173ffffffffffffffffffffffffffffffffffffffff168373ffffffffffffffffffffffffffffffffffffffff167f17307eab39ab6107e8899845ad3d59bd9653f200f220920489ca2b5937696c31836040516111749190611c0f565b60405180910390a3505050565b60008373ffffffffffffffffffffffffffffffffffffffff163b111561132b578273ffffffffffffffffffffffffffffffffffffffff1663150b7a02868685856040518563ffffffff1660e01b81526004016111e0949392919061269c565b6020604051808303816000875af192505050801561121c57506040513d601f19601f8201168201806040525081019061121991906126fd565b60015b6112a0573d806000811461124c576040519150601f19603f3d011682016040523d82523d6000602084013e611251565b606091505b50600081510361129857836040517f64a0ae9200000000000000000000000000000000000000000000000000000000815260040161128f9190611d80565b60405180910390fd5b805181602001fd5b63150b7a0260e01b7bffffffffffffffffffffffffffffffffffffffffffffffffffffffff1916817bffffffffffffffffffffffffffffffffffffffffffffffffffffffff19161461132957836040517f64a0ae920000000000000000000000000000000000000000000000000000000081526004016113209190611d80565b60405180910390fd5b505b5050505050565b606060405180602001604052806000815250905090565b606061135482610bcc565b50600061135f611332565b9050600081511161137f57604051806020016040528060008152506113aa565b806113898461175c565b60405160200161139a9291906125ac565b6040516020818303038152906040525b915050919050565b6113cc82826040518060200160405280600081525061182a565b5050565b806006600084815260200190815260200160002090816113f0919061249e565b507ff8e1a15aba9398e019f0b49df1a4fde98ee17ae345cb5f6b5e2c27f5033e8ce7826040516114209190612014565b60405180910390a15050565b60007f01ffc9a7000000000000000000000000000000000000000000000000000000007bffffffffffffffffffffffffffffffffffffffffffffffffffffffff1916827bffffffffffffffffffffffffffffffffffffffffffffffffffffffff1916149050919050565b60006002600083815260200190815260200160002060009054906101000a900473ffffffffffffffffffffffffffffffffffffffff169050919050565b808061150c5750600073ffffffffffffffffffffffffffffffffffffffff168273ffffffffffffffffffffffffffffffffffffffff1614155b1561164057600061151c84610bcc565b9050600073ffffffffffffffffffffffffffffffffffffffff168373ffffffffffffffffffffffffffffffffffffffff161415801561158757508273ffffffffffffffffffffffffffffffffffffffff168173ffffffffffffffffffffffffffffffffffffffff1614155b801561159a57506115988184610996565b155b156115dc57826040517fa9fbf51f0000000000000000000000000000000000000000000000000000000081526004016115d39190611d80565b60405180910390fd5b811561163e57838573ffffffffffffffffffffffffffffffffffffffff168273ffffffffffffffffffffffffffffffffffffffff167f8c5be1e5ebec7d5bd14f71427d1e84f3dd0314c0f7b2291e5b200ac8c7c3b92560405160405180910390a45b505b836004600085815260200190815260200160002060006101000a81548173ffffffffffffffffffffffffffffffffffffffff021916908373ffffffffffffffffffffffffffffffffffffffff16021790555050505050565b6116a383838361184e565b61175757600073ffffffffffffffffffffffffffffffffffffffff168373ffffffffffffffffffffffffffffffffffffffff160361171857806040517f7e27328900000000000000000000000000000000000000000000000000000000815260040161170f9190612014565b60405180910390fd5b81816040517f177e802f00000000000000000000000000000000000000000000000000000000815260040161174e92919061272a565b60405180910390fd5b505050565b60606000600161176b8461190f565b01905060008167ffffffffffffffff81111561178a57611789611e64565b5b6040519080825280601f01601f1916602001820160405280156117bc5781602001600182028036833780820191505090505b509050600082602001820190505b60011561181f578080600190039150507f3031323334353637383961626364656600000000000000000000000000000000600a86061a8153600a858161181357611812612753565b5b049450600085036117ca575b819350505050919050565b6118348383611a62565b61184961183f610c91565b6000858585611181565b505050565b60008073ffffffffffffffffffffffffffffffffffffffff168373ffffffffffffffffffffffffffffffffffffffff161415801561190657508273ffffffffffffffffffffffffffffffffffffffff168473ffffffffffffffffffffffffffffffffffffffff1614806118c757506118c68484610996565b5b8061190557508273ffffffffffffffffffffffffffffffffffffffff166118ed83610c54565b73ffffffffffffffffffffffffffffffffffffffff16145b5b90509392505050565b600080600090507a184f03e93ff9f4daa797ed6e38ed64bf6a1f010000000000000000831061196d577a184f03e93ff9f4daa797ed6e38ed64bf6a1f010000000000000000838161196357611962612753565b5b0492506040810190505b6d04ee2d6d415b85acef810000000083106119aa576d04ee2d6d415b85acef810000000083816119a05761199f612753565b5b0492506020810190505b662386f26fc1000083106119d957662386f26fc1000083816119cf576119ce612753565b5b0492506010810190505b6305f5e1008310611a02576305f5e10083816119f8576119f7612753565b5b0492506008810190505b6127108310611a27576127108381611a1d57611a1c612753565b5b0492506004810190505b60648310611a4a5760648381611a4057611a3f612753565b5b0492506002810190505b600a8310611a59576001810190505b80915050919050565b600073ffffffffffffffffffffffffffffffffffffffff168273ffffffffffffffffffffffffffffffffffffffff1603611ad45760006040517f64a0ae92000000000000000000000000000000000000000000000000000000008152600401611acb9190611d80565b60405180910390fd5b6000611ae283836000610cab565b9050600073ffffffffffffffffffffffffffffffffffffffff168173ffffffffffffffffffffffffffffffffffffffff1614611b565760006040517f73c6ac6e000000000000000000000000000000000000000000000000000000008152600401611b4d9190611d80565b60405180910390fd5b505050565b6000604051905090565b600080fd5b600080fd5b60007fffffffff0000000000000000000000000000000000000000000000000000000082169050919050565b611ba481611b6f565b8114611baf57600080fd5b50565b600081359050611bc181611b9b565b92915050565b600060208284031215611bdd57611bdc611b65565b5b6000611beb84828501611bb2565b91505092915050565b60008115159050919050565b611c0981611bf4565b82525050565b6000602082019050611c246000830184611c00565b92915050565b600081519050919050565b600082825260208201905092915050565b60005b83811015611c64578082015181840152602081019050611c49565b60008484015250505050565b6000601f19601f8301169050919050565b6000611c8c82611c2a565b611c968185611c35565b9350611ca6818560208601611c46565b611caf81611c70565b840191505092915050565b60006020820190508181036000830152611cd48184611c81565b905092915050565b6000819050919050565b611cef81611cdc565b8114611cfa57600080fd5b50565b600081359050611d0c81611ce6565b92915050565b600060208284031215611d2857611d27611b65565b5b6000611d3684828501611cfd565b91505092915050565b600073ffffffffffffffffffffffffffffffffffffffff82169050919050565b6000611d6a82611d3f565b9050919050565b611d7a81611d5f565b82525050565b6000602082019050611d956000830184611d71565b92915050565b611da481611d5f565b8114611daf57600080fd5b50565b600081359050611dc181611d9b565b92915050565b60008060408385031215611dde57611ddd611b65565b5b6000611dec85828601611db2565b9250506020611dfd85828601611cfd565b9150509250929050565b600080600060608486031215611e2057611e1f611b65565b5b6000611e2e86828701611db2565b9350506020611e3f86828701611db2565b9250506040611e5086828701611cfd565b9150509250925092565b600080fd5b600080fd5b7f4e487b7100000000000000000000000000000000000000000000000000000000600052604160045260246000fd5b611e9c82611c70565b810181811067ffffffffffffffff82111715611ebb57611eba611e64565b5b80604052505050565b6000611ece611b5b565b9050611eda8282611e93565b919050565b600067ffffffffffffffff821115611efa57611ef9611e64565b5b611f0382611c70565b9050602081019050919050565b82818337600083830152505050565b6000611f32611f2d84611edf565b611ec4565b905082815260208101848484011115611f4e57611f4d611e5f565b5b611f59848285611f10565b509392505050565b600082601f830112611f7657611f75611e5a565b5b8135611f86848260208601611f1f565b91505092915050565b600060208284031215611fa557611fa4611b65565b5b600082013567ffffffffffffffff811115611fc357611fc2611b6a565b5b611fcf84828501611f61565b91505092915050565b600060208284031215611fee57611fed611b65565b5b6000611ffc84828501611db2565b91505092915050565b61200e81611cdc565b82525050565b60006020820190506120296000830184612005565b92915050565b61203881611bf4565b811461204357600080fd5b50565b6000813590506120558161202f565b92915050565b6000806040838503121561207257612071611b65565b5b600061208085828601611db2565b925050602061209185828601612046565b9150509250929050565b600067ffffffffffffffff8211156120b6576120b5611e64565b5b6120bf82611c70565b9050602081019050919050565b60006120df6120da8461209b565b611ec4565b9050828152602081018484840111156120fb576120fa611e5f565b5b612106848285611f10565b509392505050565b600082601f83011261212357612122611e5a565b5b81356121338482602086016120cc565b91505092915050565b6000806000806080858703121561215657612155611b65565b5b600061216487828801611db2565b945050602061217587828801611db2565b935050604061218687828801611cfd565b925050606085013567ffffffffffffffff8111156121a7576121a6611b6a565b5b6121b38782880161210e565b91505092959194509250565b600080604083850312156121d6576121d5611b65565b5b60006121e485828601611db2565b92505060206121f585828601611db2565b9150509250929050565b6000806040838503121561221657612215611b65565b5b600061222485828601611db2565b925050602083013567ffffffffffffffff81111561224557612244611b6a565b5b61225185828601611f61565b9150509250929050565b7f4e487b7100000000000000000000000000000000000000000000000000000000600052602260045260246000fd5b600060028204905060018216806122a257607f821691505b6020821081036122b5576122b461225b565b5b50919050565b60006060820190506122d06000830186611d71565b6122dd6020830185612005565b6122ea6040830184611d71565b949350505050565b60008190508160005260206000209050919050565b60006020601f8301049050919050565b600082821b905092915050565b6000600883026123547fffffffffffffffffffffffffffffffffffffffffffffffffffffffffffffffff82612317565b61235e8683612317565b95508019841693508086168417925050509392505050565b6000819050919050565b600061239b61239661239184611cdc565b612376565b611cdc565b9050919050565b6000819050919050565b6123b583612380565b6123c96123c1826123a2565b848454612324565b825550505050565b600090565b6123de6123d1565b6123e98184846123ac565b505050565b5b8181101561240d576124026000826123d6565b6001810190506123ef565b5050565b601f82111561245257612423816122f2565b61242c84612307565b8101602085101561243b578190505b61244f61244785612307565b8301826123ee565b50505b505050565b600082821c905092915050565b600061247560001984600802612457565b1980831691505092915050565b600061248e8383612464565b9150826002028217905092915050565b6124a782611c2a565b67ffffffffffffffff8111156124c0576124bf611e64565b5b6124ca825461228a565b6124d5828285612411565b600060209050601f83116001811461250857600084156124f6578287015190505b6125008582612482565b865550612568565b601f198416612516866122f2565b60005b8281101561253e57848901518255600182019150602085019450602081019050612519565b8683101561255b5784890151612557601f891682612464565b8355505b6001600288020188555050505b505050505050565b600081905092915050565b600061258682611c2a565b6125908185612570565b93506125a0818560208601611c46565b80840191505092915050565b60006125b8828561257b565b91506125c4828461257b565b91508190509392505050565b7f4e487b7100000000000000000000000000000000000000000000000000000000600052601160045260246000fd5b600061260a82611cdc565b91507fffffffffffffffffffffffffffffffffffffffffffffffffffffffffffffffff820361263c5761263b6125d0565b5b600182019050919050565b600081519050919050565b600082825260208201905092915050565b600061266e82612647565b6126788185612652565b9350612688818560208601611c46565b61269181611c70565b840191505092915050565b60006080820190506126b16000830187611d71565b6126be6020830186611d71565b6126cb6040830185612005565b81810360608301526126dd8184612663565b905095945050505050565b6000815190506126f781611b9b565b92915050565b60006020828403121561271357612712611b65565b5b6000612721848285016126e8565b91505092915050565b600060408201905061273f6000830185611d71565b61274c6020830184612005565b9392505050565b7f4e487b7100000000000000000000000000000000000000000000000000000000600052601260045260246000fdfea26469706673582212209e6ec96c076507ccdf5db08d8a6b23514d9a777a143698ce8a8ab070dfa42ae164736f6c63430008140033",
  "linkReferences": {},
  "deployedLinkReferences": {}
}